:020000040000FA
:060000000A128A110E280D
:10000800FE00030EF5000408F6000A08F7000A12BD
:100018008A111F280A128A111128F801F901FA0118
:10002800FB0183120313AC01AD01AE01AF018301E3
:100038000A128A11F4280B1C222823283428831238
:1000480003130618282829282D280130F3007308DF
:10005800AF0786183028312833280130AF020B103B
:10006800831203139F140C1F3A283B2847287B0848
:100078000A128A11BB210A128A11F300730883122B
:100088000313AE000C132130F300F30B49280B1DAA
:100098004E284F2882280A128A11B1210A128A1181
:1000A8007228831203132D080A128A1156210A1284
:1000B8008A118312031388000130F3007308F807CC
:1000C8008228831203132C080A128A1156210A1255
:1000D8008A11831203138800F80182287808F30034
:1000E800F4017408003A03197A2882287308003A40
:1000F80003195528013A03196528822877088A00C8
:1001080076088400750E8300FE0E7E0E09008312A9
:100118000313A601A11F912892289928A009A109D3
:10012800A00A0319A10AA601A60AA31F9C289D28B4
:10013800A628A209A309A20A0319A30A0130A40048
:100148002408A606A701A801200821040319AD2840
:10015800AE28E528A501A50ABC2801300310A00D8A
:10016800A10DFF3E031DB2280130A4002408A507F5
:10017800A11FBF28C028B12801300310A70DA80D62
:10018800FF3E031DC12821082302031DCD28200896
:100198002202031CD028D128D8282008A20221082E
:1001A800031CA303A302271401300310A10CA00C05
:1001B800FF3E031DD9280130A502031DE428E528C8
:1001C800C02826080319E928EA28EF28A709A8095A
:1001D800A70A0319A80A2808A1002708A0000800F0
:1001E800831603130F088F3940388F000F148316B6
:1001F80003178801203089008316031385012330F3
:100208008600870188010430890083120313850161
:10021800860187018801890137309F0083160313FF
:100228009F01843083120313A900A90B1929000028
:10023800831603138113151495141614961481123A
:100248008111011181140114643083120313810098
:100258000B118B178B150B178B16831603130C17A3
:1002680083122F0887001030A0000030A1002E084C
:10027800A900AA012908A2002A08A3000A128A11C3
:100288008B200A128A11831203132008AB002B0853
:10029800AD002E080F39A9002908AC0034290A122C
:1002A8008A110E28F20076293F30B0295B30B02938
:1002B8004F30B0296630B0296D30B0297D30B02973
:1002C8000730B0297F30B0296730B0297730B0299E
:1002D8007C30B0293930B0295E30B0297930B02966
:1002E8007130B0297208F000F1017108003A031961
:1002F8007E29B0297008003A03195829013A0319D0
:100308005A29033A03195A29013A03195C29073A69
:1003180003195E29013A03196029033A031962296E
:10032800013A031964290F3A03196629013A031996
:100338006829033A03196A29013A03196C29073A0B
:1003480003196E29013A03197029033A031972290E
:10035800013A03197429B02908007D308312031368
:1003680081000B110130F000700889070800831222
:0603780003131E0808003B
:04400E00D420FF3F7C
:00000001FF
